:020000040800F2
:10000000980A0020C1010008132A0008D72600081A
:10001000E1290008CD090008FF31000800000000B8
:100020000000000000000000000000007D2C00081F
:10003000390B000800000000492A0008912C000834
:10004000DB010008DB010008DB010008DB01000820
:10005000DB010008DB010008DB010008DB01000810
:10006000DB010008DB010008DB010008DB01000800
:10007000DB010008DB010008DB010008DB010008F0
:10008000DB010008DB010008DB010008DB010008E0
:10009000D1090008DB010008DB010008DB010008D2
:1000A000DB010008DB010008DB010008DB010008C0
:1000B000352D0008DB010008DB010008DB0100082A
:1000C000DB010008DB010008DB010008DB010008A0
:1000D000DB0100086D310008DB010008DB010008CE
:1000E000DB010008DB010008DB010008DB01000880
:1000F000DB010008DB010008DB010008DB01000870
:10010000DB010008DB010008DB010008DB0100085F
:10011000DB010008DB010008DB010008DB0100084F
:10012000DB010008DB010008890A0008DB01000888
:10013000DB010008DB010008DB010008DB0100082F
:10014000190A0008DB010008DB010008DB010008D8
:10015000DB010008DB010008DB010008DB0100080F
:10016000DB010008DB010008DB010008DB010008FF
:10017000DB010008DB010008DB01000800000000D3
:10018000DB010008DB010008DB010008DB010008DF
:10019000DB010008DB010008DB010008DB010008CF
:1001A0000000000000000000DB010008DFF80CD0B8
:1001B00000F04CFB00480047F5480008980A002072
:1001C0000648804706480047FEE7FEE7FEE7FEE7F1
:1001D000FEE7FEE7FEE7FEE7FEE7FEE7192D000873
:1001E000AD0100082DE9F05F0546002092469B46D0
:1001F00088460646814640241BE02846414647463D
:10020000224600F01BFA53465A46C01A914110D3B9
:1002100011461846224600F002FA2D1A67EB010833
:100220004F4622460120002100F0F9F917EB0009A2
:100230004E41201EA4F10104DFDC484631462A4627
:100240004346BDE8F09F40EA01039B0703D009E065
:1002500008C9121F08C0042AFAD203E011F8013BB2
:1002600000F8013B521EF9D27047D2B201E000F80B
:10027000012B491EFBD270470022F6E710B513464A
:100280000A4604461946FFF7F0FF204610BD2DE947
:10029000FE4F804681EA0300C00F0C46009021F01B
:1002A000004123F00045B8EB0200A94105D24046C9
:1002B000214690461C460B46024623F00040104360
:1002C00047D0270DC7F30A00C3F30A510290401A22
:1002D000019040286BDAC3F3130040F4801B0098B0
:1002E000924620B10023D2EB030A63EB0B0B01987B
:1002F0005946C0F14002504600F091F906460D46BD
:1003000050465946019A00F0A9F910EB08006141E6
:10031000002487EA115284EAE7731A4340D0009A16
:1003200062B3019A012A4FEA075215DC001B61EB08
:1003300002014FF0004202EA0752CDE90042001CE0
:1003400041F5801132462B4600F0E0F903B0BDE8DC
:10035000F08F40462146F9E7001B61EB0201001CCB
:1003600041F5801300185B412018A2F5001747EBF8
:10037000030140EAD570B6196D4111E06D084FEAEE
:10038000360645EAC0754FEA0752001B61EB0201D1
:10039000001C41F5801149084FEA30000019514115
:1003A00032462B4603B0BDE8F04F00F0A0B90098EC
:1003B000012240000023D0EB020263EBE0730098BF
:1003C00021464FEAE074B8EB000061EB0401E9E775
:1003D00083F000435BE781F0004158E72DE9FE4FD1
:1003E00081EA030404F0004421F0004100944FF03E
:1003F000000B23F0004350EA01045ED052EA0304EC
:100400005BD0C3F30A54C1F30A552C44A4F2F3346D
:100410000194A0FB0254C1F3130141F48011C3F312
:10042000130343F4801301FB024400FB034E840AD0
:10043000970A44EA815447EA8357A4FB0768029568
:100440008D0A05FB07854FEA932C04FB0C54270506
:10045000029D4FEA065847EA1637B5EB08056EEBE2
:10046000070C870E920E47EA811742EA8312A7FB18
:100470000201B6EB0B0164EB00042B0D43EA0C33D5
:100480005E1844EB1C50DA465146E7FB0201C5F307
:1004900013044FEA0B3343EA14534FEA0432019C2E
:1004A00043EA0603A4F10C040294009CCDE900B4D5
:1004B00000F02CF903B0BDE8F08F00200146F9E709
:1004C0002DE9F04D81EA030404F0004B21F00045D2
:1004D00014464FF0000A23F0004150EA050220D0F4
:1004E00054EA01021DD0C5F30A570246C5F31303AF
:1004F000C1F31300C1F30A5640F4801543F480138E
:10050000A7EB0608101BD64608F2FD3873EB050072
:1005100002D308F1010801E092185B41B8F1000F25
:1005200003DA00200146BDE8F08D00204FF4801171
:10053000064684460EE0171B73EB050705D3121B16
:1005400063EB050306434CEA010C49084FEA30000F
:1005500092185B4150EA0107EDD152EA030012D034
:1005600082EA040083EA0501084305D0101BAB4171
:1005700006D20122002306E000224FF0004302E0F1
:100580006FF0010253101AEB06004CEB085110EB10
:100590000A0041EB0B01BDE8F04D00F0A8B80EB524
:1005A000C10F80EAE0700844CA07002140F23343DB
:1005B0008DE80E000A460B4600F0A8F803B000BD17
:1005C00000F0004230F000400AD0C10D01F560712A
:1005D000C0F3160042EA0151C208400711437047B8
:1005E00000200146704701F0004330B421F0004183
:1005F00050EA010206D00A0DA2F56072C1F31301A0
:10060000002A02DC30BC00207047440F44EAC104D9
:10061000C100E01830BC00EBC25000F031B8202A15
:1006200004DB203A00FA02F1002070479140C2F149
:10063000200320FA03F3194390407047202A04DB7B
:10064000203A21FA02F00021704721FA02F3D0404B
:10065000C2F120029140084319467047202A06DB68
:10066000CB17203A41FA02F043EAE07306E041FA80
:1006700002F3D040C2F1200291400843194670476E
:100680000029A8BF7047401C490008BF20F00100A6
:10069000704710B4B0FA80FC00FA0CF050EA010484
:1006A00004BF10BC704749B1CCF1200421FA04F416
:1006B00011FA0CF118BF012121430843A3EB0C01EF
:1006C000CB1D4FEA00614FEA102042BF002010BC52
:1006D000704700EBC35010440029A4BF10BC704702
:1006E000401C490008BF20F0010010BC704710B545
:1006F000141E73F1000408DA401C41F10001921845
:100700005B411A4301D120F0010010BD2DE9F04DED
:1007100092469B4611B1B1FA81F202E0B0FA80F242
:1007200020329046FFF77BFF04460F4640EA0A005E
:1007300041EA0B0153465A46084313D0114653EA87
:10074000010019D0C8F140025046FFF777FF054677
:100750000E46504659464246FFF761FF084305D012
:10076000012004E020463946BDE8F08D0020054315
:1007700046EAE0762C4337430A986305E40AA0EB87
:1007800008000022FD0A44EA47540A3002D500203E
:100790000146E9E7010510196941DDE9084500193D
:1007A0006941BDE8F04DA2E72DE9F04D00231A465E
:1007B0001B1A8A4103DB00200146BDE8F08DC1F31E
:1007C0000A52C1F3130141F480154FF0000BD10719
:1007D00002D100186D41521E0027044640F2FF115D
:1007E000384601EB620A3E468046024600204FF43E
:1007F0008011FFF723FFC2197141BB1846EB0100BE
:10080000B4EB030C75EB000C04D3E41A65EB0005A4
:1008100017460E46241908F101006D418046342820
:10082000E3DDF91946EB0600091BA84103D24FF09E
:10083000FF32134601E0002213461BEB070046EB94
:100840000A51BDE8F04DFFF752BF0000064C074DBE
:1008500006E0E06840F0010394E807009847103490
:10086000AC42F6D3FFF7A6FCA8510008C851000817
:100870000EB540F2334102910021CDE900110A4644
:100880000B46FFF743FF03B000BD70B5C1F30A523A
:1008900001F000450024C1F3130140F2FF3341F49D
:1008A00080119A4201DA002070BD40F233439A422F
:1008B000A2F2334203DC5242FFF7C0FE00E0904058
:1008C0002C43F1D0404270BD10B502F01DF901F08B
:1008D00003FF01F009FF02F093FC104801F050FC07
:1008E0000F4800F0B5F802210D4800F03DF90C4822
:1008F00000F056FC0B4800F0ABF80221094800F06C
:1009000033F9084800F04CFC074800F011F807489C
:1009100002F096FCBDE8104004F038B874030020E3
:10092000CC020020F4020020F8000020C4010020C6
:1009300070B504462DED028BB1EE040ADFED218A7D
:100940009FED218A0830B0EE683AF0EE682AB0EEEA
:10095000482AF0EE681AB0EE481AF0EE480A02F0A3
:1009600059F8002084F83C0004F14005B0EE683AE4
:10097000F0EE682AB0EE482AF0EE681AB0EE481A97
:10098000F0EE480AB1EE040A04F1480002F042F821
:10099000012085F83C00B0EE683AF0EE682AB0EE2F
:1009A000482AF0EE681AB0EE481AF0EE480ABDEC9C
:1009B000028B04F18000BDE87040B1EE040A02F041
:1009C00029B8000000409C4500000000FEE7000040
:1009D00010B500224FF480410A4800F095FE0A4B02
:1009E0000A4A1C4600210A4800F057F928B907486E
:1009F00021460268074801F0F4FFBDE810400448B2
:100A000000F0BFB900140240C402002060040020BE
:100A1000CC020020C401002010B50A4B0A4A1C4633
:100A200000210A4800F039F930B907482146026828
:100A30000448C43801F0E1FFBDE81040034800F06D
:100A4000A0B90000BC0100207C040020F4020020BA
:100A500000B50C4B0E2200218BB0984201D10591BC
:100A600000E005920992012201910291CDE906125E
:100A70000391009104910892694600F087F80BB049
:100A800000BD0000CC020020014800F0CFBB0000F8
:100A90000004002001681823CAB2103AB2FBF3F236
:100AA000054B6FF30901032A9B5CC36500D9091D3F
:100AB00081650846704700001450000810B50146D3
:100AC00000208B698A6A4FF0C07453B1B3F5005FA0
:100AD00015D072B1012A0CD0022A0AD0032A09D1FA
:100AE00004E01AB1012A06D0022A03D1C96AC90159
:100AF00000D5012010BDC96AA142FAD010BD002A5C
:100B0000F7D0012AF2D0022AF3D0032AF3D010BD85
:100B100030B50468256825F4802525600468636085
:100B20008368402B036803D099600068C26030BDC1
:100B30009A600068C16030BD7047704709484178CD
:100B400011B10021417009E0B7EE001A31EE601AD0
:100B500021EE000A90ED011A00EE810A80ED010AF3
:100B6000704700000000002090F82020012A07D0E4
:100B7000022A05D0416A41F4802141620120704778
:100B8000006842690A4342610020704710B590F83E
:100B90002020012A07D0022A05D0416A41F4802191
:100BA0004162012010BD3B48D0F8002242F0010212
:100BB000C0F80022D0F8002222F47C52C0F80022B3
:100BC000D0F800224B6A42EA0322C0F800220A7DD4
:100BD00002F01F0301229A40D0F81C329343C0F860
:100BE0001C32CB69B3B9D0F80C329343C0F80C3245
:100BF0008C894B6864F31F434C6900EBC404C4F850
:100C000040320C890B6864F31F434C6900EBC40449
:100C1000C4F84432CB69012B16D1D0F80C321343FF
:100C2000C0F80C320C884B6864F31F434C6900EB2E
:100C3000C404C4F840320C89CB6864F31F434C6988
:100C400000EBC404C4F844328B69002BD0F80432A2
:100C50000ED01343C0F804320B69002BD0F81432C5
:100C600008D01343C0F81432096A012904D008E0FF
:100C70009343EFE79343F5E7D0F81C121143C0F814
:100C80001C12D0F8001221F00101C0F8001200205F
:100C900010BD000000640040704730B590F820405F
:100CA000012C05D0022C03D0416A41F480215DE083
:100CB0000468002955D02469A40754D04FF4D8748F
:100CC000056804EB01142D5915F0040595600568BD
:100CD0002D594ED0ED08556005682C5904F00204DA
:100CE000D4604FF4DA74056804EB01142D5905F053
:100CF0000F05156105682D59C5F307259561056830
:100D00002C59240C54614FF4DC72046802EB01127C
:100D1000A4581C700468A458240A5C700468A45881
:100D2000240C9C700468A258120EDA704FF4DE7224
:100D3000046802EB0112A4581C710468A458240A28
:100D40005C710468A458240C9C710468A258120EAB
:100D5000DA71006881B1016941F020010161002070
:100D600030BDE468A8E7416A41F400114162012006
:100D700030BD6D0D1560AFE7C16841F02001C16065
:100D8000EDE72DE9F05F0546006800244669D0F8DC
:100D900004908768D0F80CB0D0F810A0D0F8188074
:100DA000F10748D0F90714D001218160B80703D5B5
:100DB000284600F022FA0CE0780702D54FF40064D0
:100DC00007E0380702D54FF4805402E0284600F0CF
:100DD00013FAF80516D529684FF480708860B805B5
:100DE00003D5284600F00BFA0CE0780502D544F450
:100DF000005407E0380502D544F4804402E0284658
:100E000000F0FCF9F80316D529684FF480308860AB
:100E1000B80303D5284600F0F4F90CE0780302D5B6
:100E200044F4004407E0380302D544F4803402E07F
:100E3000284600F0E5F9300707D55FEACB6004D516
:100E40002968102044F40074C86070074FF0080748
:100E500007D55FEA0B7004D52868C760284600F004
:100E600099F9B00706D52868C068800702D02846DF
:100E700000F091F9700607D55FEACA6004D52968C9
:100E8000102044F480640861B00607D55FEA0A7058
:100E900004D528680761284600F07EF9F00606D5DB
:100EA00028680069800702D0284600F076F9B00370
:100EB00008D55FEAC96005D5296810204860284632
:100EC00000F06CF9F00307D55FEA097004D52868D3
:100ED0004760284600F096F9300446D55FEA49702D
:100EE00040D5F00504D55FEAC87001D044F0010494
:100EF000B00504D55FEA887001D544F0020470059E
:100F000004D55FEA487001D544F00404300529D5C2
:100F100018F0700F26D008F07000402815D006DCBD
:100F2000102809D020280AD0302816D10AE05028ED
:100F30000ED0602811D10EE044F008040DE044F01A
:100F400010040AE044F0200407E044F0400404E008
:100F500044F0800401E044F480742868816921F041
:100F600070018161296804204860002C05D0686AFE
:100F7000204368622846FFF78FFEBDE8F09F70B5FA
:100F8000040003D094F8200010B104E0012070BDEB
:100F9000204600F081F82068016821F0020101601C
:100FA00000F0B8FB0546052604E000F0B3FB401B4B
:100FB0000A2811D8206840688007F6D420680168A4
:100FC00041F00101016000F0A5FB05460BE000F0D7
:100FD000A1FB401B0A2806D9606A40F40030606219
:100FE00084F82060D2E720684068C007EFD0207EF8
:100FF0000128206801683DD021F080010160607EF9
:1010000001282068016838D021F040010160A07EED
:1010100001282068016833D021F020010160E07EC2
:101020000128206801682ED041F010010160207F66
:1010300001282068016829D021F008010160607F43
:1010400001282068016824D021F004010160D4E95E
:1010500002010843D4E90412114308436168491EA0
:1010600008432168C86100206062012084F82000E4
:10107000002070BD41F08001C0E741F04001C5E7AC
:1010800041F02001CAE721F01001CFE741F008014B
:10109000D4E741F00401D9E7F0B587B00446142144
:1010A0006846FFF7E9F8364B3648DFF8D0E01968B4
:1010B000D4F800C0334A0325022609271030002443
:1010C000491CF44522D11960012907D1016841F07A
:1010D00000710160006800F000700590106840F039
:1010E000080010601068CDE9005600F00800CDE956
:1010F000047069462448CDE9024500F01BFA00223D
:101100000421142000F074FB142033E0DFF87CE0AD
:10111000F44531D1D0F800C04CF0806CC0F800C06C
:10112000D0F800C001290CF0806CCDF814C0196013
:1011300007D1016841F000710160006800F00070A3
:101140000590106840F002001060106802AB00F0DB
:10115000020005904FF44050CDE9000683E8B0004E
:1011600069460B4800F0E6F900220521402000F016
:101170003FFB402000F02EFB07B0F0BD00640040B4
:101180003C00002030380240000C02400068004063
:101190000004024070477047704770477047000076
:1011A00070B5044690F82000012804D0606A40F42D
:1011B0000020606218E0022084F8200020680168A6
:1011C00021F00101016000F0A5FA05460EE000BF24
:1011D00000F0A0FA401B0A2808D9606A40F40030E9
:1011E0006062052084F82000012070BD20684068FE
:1011F000C007EDD1606270BD70477047704770479F
:1012000070477047704790F83510022903D080214D
:10121000416501207047052180F83510006801689C
:1012200021F0010101600020704700002DE9F84322
:1012300004464FF00009CDF8009063484FF4165172
:10124000A56D0068B0FBF1F72E6894F85C100820DB
:1012500000FA01F131420FD021680A6852070BD51C
:101260000A6822F004020A6094F85C108840A860C2
:10127000606D40F00100606594F85C104FF001086B
:1012800008FA01F0304208D021684969090604D5FE
:10129000A860606D40F00200606594F85C10042066
:1012A0008840304208D021680968890704D5A860C1
:1012B000606D40F00400606594F85C101020884078
:1012C000304218D021680968090714D5A860206841
:1012D0000168490304D50068000308D5A16C07E044
:1012E0000168C90503D4016821F008010160216C7F
:1012F00009B12046884794F85C102020884030428D
:1013000031D021680968C9062DD5A86094F8350048
:1013100005282068016806D0490347D50068000306
:101320001DD4616C1CE021F0160101602068416948
:1013300021F080014161206C08B9A06C20B12068C7
:10134000016821F00801016094F85C103F2088409A
:10135000A86084F8349084F83580216D1FE0E16B3B
:1013600009B120468847606D00282BD0606DC0070A
:1013700014D0052084F835002068016821F00101AF
:1013800001600098401C0090B84203D820680068B3
:10139000C007F6D184F8349084F83580E16C0029D8
:1013A00010D001B02046BDE8F04308470168C905E8
:1013B000D5D4016821F01001016084F8349084F8DC
:1013C0003580CCE7BDE8F8834C0000202DE9F041E2
:1013D000044600F09FF906465CB1002584F83450BD
:1013E000022084F835002068016821F001010160C5
:1013F0000DE00120BDE8F08100F08CF9801B05288C
:1014000005D920206065032084F83500F2E72068C4
:101410000068C007F0D12268116820480140D4E973
:1014200001031843D4E9033633431843636918436F
:10143000A3691843E3691843236A18430843616AA0
:10144000042903D1D4E90B13194308431060206821
:101450004069666A20F0070130460E4301270428E0
:101460000CD1A06A0643E06A40B12046FFF726FB94
:1014700020B14020606584F83570BAE72068466185
:101480002046FFF707FB94F85C203F2191408160E4
:10149000656584F835700020ACE700003F8010F0EF
:1014A0002DE9F0410446866D90F8340000250128AE
:1014B0000DD0012084F8340094F835700020012FFD
:1014C00007D084F8340002252846BDE8F0810220C8
:1014D000FBE7022784F8357060652046FFF718FBAC
:1014E00094F85C103F208840B0602068016841F0AB
:1014F00016010160206C20B12068016841F00801EC
:1015000001602068016841F001010160DCE7000032
:1015100070B5044600F0FEF80546601C02D0044891
:101520000078044400F0F6F8401BA042FAD370BDE6
:10153000400000202DE9F84F00224FF0010803255C
:101540004FF00F0E0B6808FA02F42340A3426ED14D
:101550004E68012E05D0022E03D0112E01D0122E7E
:1015600012D186684FEA420C05FA0CF7BE43CF68E9
:1015700007FA0CF7374387604668A6430C79C4F333
:101580000014944034434460C668570005FA07FCD1
:101590008C6826EA0C06BC403443C4604C68022CBC
:1015A00001D0122C13D1D40800EB8404A346D4F844
:1015B000209054074FEAD46A0EFA0AF629EA06097F
:1015C0000E6906FA0AF646EA0906CBF820600468B6
:1015D0000E7924EA0C0406F00306BE40264306609A
:1015E0004C68E4006FD53B4C266846F48046266084
:1015F000246822F0030604F480440094364C3444FA
:10160000A446D4F808489607360F0EFA06F7BC43EE
:10161000324FB84201D100272EE0314FB84201D1FC
:10162000012729E02F4FB84202D1022724E04AE0E7
:101630002D4FB84201D103271EE02C4FB84201D1F3
:10164000042719E02A4FB84201D1052714E0294F99
:10165000B84201D106270FE0274FB84201D1072732
:101660000AE0264FB84201D1082705E0244FB842CE
:1016700001D1092700E00A27B7402743CCF80878B2
:10168000204E34684F689C43FF0300D51C433460F0
:101690001C4E361D34684F689C43BF0300D51C4365
:1016A0003460184E083634684F689C43FF0200D5FA
:1016B0001C433460134E0C3634684F689C43BF02A1
:1016C00000D51C433460521C102AFFF43BAFBDE828
:1016D000F88F000044380240003001400000024012
:1016E0000004024000080240000C024000100240CA
:1016F0000014024000180240001C0240002002407A
:1017000000240240003C01400AB181617047090495
:10171000FBE700000148806870470000400000209F
:1017200002488168027811448160704740000020BF
:101730000B4810B5016841F400710160016841F483
:1017400080610160016841F480710160032000F054
:101750006FF8002000F006F800F024F8002010BD1B
:10176000003C024070B50D4D04464FF47A71287864
:10177000B1FBF0F00A490968B1FBF0F000F069FC38
:1017800048B9102C07D200222146501E00F030F834
:1017900000206C6070BD012070BD00004000002082
:1017A0004C0000200A4808B5016841F480410160FE
:1017B000006800F4804000900548001F016841F077
:1017C00080510160006800F08050009008BD00006A
:1017D00044380240002809DB00F01F02012191403B
:1017E0004009800000F1E020C0F8001170470000BF
:1017F000F0B40E4B1B680C46C3F30223C3F107057C
:10180000042D00D90425191D072901D2002300E069
:10181000DB1E012606FA05F1491E214099409E4033
:10182000761E16403143F0BC01F093BD0CED00E094
:10183000064900F0070208684FF6FF03184040EA27
:101840000220034A10430860704700000CED00E0DE
:101850000000FA052DE9F0470E46050065D0DFF8D7
:101860001481D8F80000F7B200F00F00B04207D2A0
:1018700088F80070D8F8000000F00F00B04254D192
:1018800028683D4C810712D5400703D5206840F4F5
:10189000E05020602878000703D5206840F46040BD
:1018A00020602068A96820F0F000084320602878B4
:1018B000C0072DD0304968680839012812D00228A5
:1018C00013D0032811D00968890700292DDA21686F
:1018D00021F0030101432160FFF71CFF814641F223
:1018E000883A0EE009688903EFE709688901ECE7A7
:1018F000FFF710FFA0EB0901514502D90320BDE815
:10190000F0872068696800F00C00B0EB810FEFD120
:10191000D8F80010404601F00F01B14207D9077016
:10192000006800F00F00B04201D00120E7E72878FE
:10193000400705D52068E96820F4E050084320609E
:101940002878000706D52068296920F4604040EA1D
:10195000C100206000F038F82168084AC1F3031183
:10196000515CC8400649086006480068FFF7FAFE67
:101970000020C4E7003C0240083802401C50000828
:101980004C00002044000020044805490068096814
:10199000044AC1F38221515CC84070474C000020CA
:1019A000083802402C5000080448054900680968BE
:1019B000044AC1F34231515CC84070474C000020DA
:1019C000083802402C500008154810B5006810F087
:1019D0000C02144813D04110042A0FD0082A0ED14B
:1019E0000F4C241F2268236802F03F025B0207D5D8
:1019F0002068C0F38810A0FB010106E0084610BD76
:101A00002168C1F38811A1FB00010023FEF7EAFB66
:101A10002168C1F30141491C4900B0FBF1F010BD40
:101A2000083802400024F4002DE9F84F04006ED07D
:101A30002078DFF83C93C007A9F104054AD009F1EA
:101A400004000168C1F38101012908D00068C0F3D6
:101A5000810002280AD1D9F80000400206D5286882
:101A6000800337D560680028E1D033E06068B0F5C6
:101A7000803F10D0B0F5A02F286810D020F480301F
:101A80002860286820F4802028606068A8B1FFF7EB
:101A900041FE06460DE0286840F48030F4E740F44B
:101AA00080202860F7E700BFFFF734FE801B642822
:101AB00073D828688003F7D50CE0FFF72BFE0646A5
:101AC00005E000BFFFF726FE801B6428F0D82868D9
:101AD0008003F7D42078DFF89C8280074FF0000A5B
:101AE0003ED5A348001D016811F00C0F08D0006816
:101AF000C0F3810002280BD1D9F80000400207D4BE
:101B00002868800716D5E068012800D112E02BE193
:101B1000E068B8B10120C8F80000FFF7FBFD0646F9
:101B200005E000BFFFF7F6FD801B0228C0D828683B
:101B30008007F7D52868216920F0F80040EAC10045
:101B400028600DE0C8F800A0FFF7E4FD064604E0B9
:101B5000FFF7E0FD801B02281FD828688007F7D414
:101B60002078000722D5824E83486169703671B1B2
:101B700001210160FFF7CEFD074604E0FFF7CAFD33
:101B8000C01B022809D830688007F7D50EE0C0F8DE
:101B900000A0FFF7BFFD074605E082E0FFF7BAFDB2
:101BA000C01B02287DD830688007F7D42078400712
:101BB00068D5DFF8BCB100270BF13C0BDBF8000067
:101BC000C0000BD4DBF8001041F08051CBF80010BE
:101BD000DBF80000012700F080500090674E30686D
:101BE000C00510D4306840F480703060FFF792FD7B
:101BF000009005E0FFF78EFD0099401A022850D8AA
:101C00003068C005F6D55A4EA0686C3601280FD052
:101C10000528306810D020F001003060306820F0D6
:101C200004003060A068B8B1FFF774FD00900FE0C9
:101C3000306840F00100F4E740F004003060F7E75E
:101C4000FFF768FD0099411A41F28830814266D859
:101C500030688007F4D50EE0FFF75CFD009007E0E8
:101C6000FFF758FD0099411A41F28830814256D859
:101C700030688007F4D42FB1DBF8001021F08051D8
:101C8000CBF80010A069C8B33949091D0968C1F330
:101C9000810102294AD00228504607D0C8F86000C6
:101CA00000E03CE0FFF736FD04463BE04746C8F85D
:101CB0006000FFF72FFD064605E000BFFFF72AFD95
:101CC000801B02282BD828688001F7D4D4E90701AB
:101CD0000843A16A2A4A490802EB0141626A41EAC3
:101CE0008211084394F82C1040EA0161C9F80010F1
:101CF00001203866FFF70EFD044606E036E000BF1F
:101D0000FFF708FD001B022809D828688001F7D5D5
:101D10002CE000BFFFF7FEFC001B022802D90320C5
:101D2000BDE8F88F28688001F4D41FE00128F7D0BF
:101D3000D9F80000E26900F48001914214D1226ACE
:101D400000F03F0191420FD147F6C071626A014035
:101D5000914209D1A26A00F44031914204D1E16A72
:101D600000F07060884201D00120D9E70020D7E759
:101D70000438024000004742800E47420070004095
:101D80000000FFFF70B5040005D00025A56294F89F
:101D9000510010B106E0012070BD84F8505020467B
:101DA00000F030F8022084F851002068016821F02A
:101DB00040010160D4E901010843D4E90312114351
:101DC000084361690843218B01F400710843E1690C
:101DD0000843216A0843A16A084321680860A06992
:101DE000042101EA1040616A0843216848602068C4
:101DF000C16921F40061C1616565012084F8510069
:101E0000002070BD10B586B0044614216846FEF768
:101E100033FA14492068884221D11348002102680E
:101E200042F480120260006800F4801005900E48B1
:101E30001438026842F020020260006800F02000BE
:101E400005904FF4607000900220CDE9010103205D
:101E500003900520049069460448FFF76BFB06B029
:101E600010BD000000500140443802400014024000
:101E70002DE9F84F044690F8500000270A9E1D46B1
:101E800092468B464FF0010901280ED0012084F8BC
:101E90005000FFF73FFC804694F85100616801282C
:101EA0000CD0B1F5827F07D102E00220BDE8F88FA7
:101EB000A16809B9042801D00227C2E0BBF1000FD4
:101EC00027D0BAF1000F24D01DB394F85100042894
:101ED00002D0052084F8510000206065C4F838A0C5
:101EE000E587A587C4F830B0E586A58620646064E0
:101EF00020680168490603D4016841F0400101608F
:101F0000E068B0F5006F606805D0E8B3012D46D0F9
:101F10007FE0012795E008B1012D39D1206B2168C0
:101F20000088C860206B801C2063E08E401EE08625
:101F30002EE02068816889070FD5E18E69B1B9F17B
:101F4000010F0AD1216B0988C160206B801C2063BE
:101F5000E08E401EE0864FF0000920688168C907C6
:101F60000CD0E18F51B1C068A16B0880A06B801CC0
:101F7000A063E08F401EE0874FF00109FFF7CAFB26
:101F8000A0EB0800B04200E009E001D3701C50D182
:101F9000E08E0028CDD1E08F0028CAD13FE0206B31
:101FA000216800780873206B401C2063E08E401E7F
:101FB000E0862EE02068816889070FD5E18E69B13F
:101FC000B9F1010F0AD1216B09780173206B401C14
:101FD0002063E08E401EE0864FF000092068816893
:101FE000C9070CD0E18F51B1C068A16B0870A06B1C
:101FF000401CA063E08F401EE0874FF00109FFF70F
:1020000089FBA0EB0800B04202D3701C01D010E0A5
:102010007EB1E08E0028CDD1E08F0028CAD14246A3
:102020003146204600F0B4FD28B10127202060652C
:1020300007E0032705E0A06818B92068C168806838
:102040000090012084F85100002084F850003846A8
:102050002CE710B5401EB0F1807F01D3012010BDE8
:102060004FF0E02460610F21601701F072F9002049
:10207000A06107202061002010BD7047704700005C
:1020800070B590F83C20012A32D0012480F83C4001
:10209000022280F83D2003685A689D6822F070068D
:1020A0000A6832435A60134B02689A4214D0B2F164
:1020B000804F11D0104B9A420ED0104B9A420BD049
:1020C0000F4B9A4208D00F4B9A4205D00E4B9A42C2
:1020D00002D00E4B9A4204D1496825F0800319437F
:1020E000916080F83D40002180F83C10084670BDAA
:1020F000022070BD000001400004004000080040C4
:10210000000C004000040140004001400018004065
:1021100010B5040003D094F83D0010B107E0012091
:1021200010BD002084F83C00204600F00DF802208D
:1021300084F83D00211D206800F006FE012084F88F
:102140003D00002010BD000008B50068B0F1804FD0
:1021500012D10A48016841F00101016000680022C3
:1021600000F00100009005211C20FFF741FBBDE8B5
:1021700008401C20FFF72EBB08BD0000403802407D
:102180000168CA6842F00102CA600068816801F013
:102190000701062903D0016841F001010160002018
:1021A000704770B5044690F83C00012817D001250F
:1021B00084F83C50022084F83D002068826822F0B8
:1021C000770222F47F4282600868502830D00DDC0C
:1021D00020284DD005DC98B310283BD148E00220E0
:1021E00070BD302844D0402834D139E0602828D050
:1021F000702806D0B0F5805F2CD0B0F5005F29D1F3
:102200000AE0CB68D1E90121206800F001FE2068D6
:10221000816841F0770109E0CB68D1E901212068AC
:1022200000F0F6FD2068816841F48041816011E092
:10223000CA684968206800F0FDFD5021206807E069
:1022400016E0CA684968206800F005FE6021206831
:1022500000F0E8FD84F83D50002084F83C0070BD9B
:10226000CA684968206800F0E5FD40212068EFE772
:10227000226801461046EBE7704770B504460068D7
:1022800001694FF00005C943890715D4C168C943E6
:10229000890711D4E91E0161012020772068806937
:1022A0008007204602D0FFF7E7FF04E000F098F82F
:1022B000204600F096F8257720680169C943490750
:1022C00017D4C168C943490713D46FF004010161F1
:1022D000022020772068806910F4407F204602D0D9
:1022E000FFF7CAFF04E000F07BF8204600F079F821
:1022F000257720680169C943090716D4C168C94315
:10230000090712D46FF008010161042020772068CA
:10231000C0698007204602D0FFF7AEFF04E000F05E
:102320005FF8204600F05DF8257720680169C94311
:10233000C90617D4C168C943C90613D46FF0100188
:102340000161082020772068C06910F4407F204692
:1023500002D0FFF791FF04E000F042F8204600F0C1
:1023600040F8257720680169C943C90708D1C168C9
:10237000C943C90704D1891E0161204600F032F823
:1023800020680169C943090609D4C168C94309061F
:1023900005D46FF0800101612046FFF76EFE2068D2
:1023A0000169C943490609D4C168C943490605D42E
:1023B0006FF040010161204600F015F820680169C6
:1023C000C94389060BD4C168C943890607D46FF095
:1023D000200101612046BDE87040FFF74FBE70BD8F
:1023E00070477047704770477047000070B50268CB
:1023F00004461068D168536910F00F0F52D003F0F3
:10240000010501F490762E435FD0C20705D0CA05BE
:1024100003D5E26B42F00102E263420705D5DA0719
:1024200003D0E26B42F00202E263820705D5DA07CD
:1024300003D0E26B42F00402E263020707D501F029
:1024400020022A4303D0E26B42F00802E263E26B0F
:10245000002A33D0800604D5880602D5204600F035
:1024600073FD20684069E16BC0F38010090700D458
:1024700028B3204600F051FD2068416949061AD56D
:10248000416921F040014161606BA0B11B490165C8
:10249000606BFEF7B8FE002810D0606B016DBDE8E0
:1024A00070400847830610D58B060ED52046BDE840
:1024B000704000F049BD2046FFF796FF70BD2046F2
:1024C000FFF792FF0020E06370BD030606D50B0600
:1024D00004D52046BDE8704000F016BE4006F3D596
:1024E0004806F1D5D168204621F04001D160202175
:1024F00084F8391000F0EEF870BD00007B2E000863
:1025000070B5040004D094F83900002510B106E03D
:10251000012070BD84F83850204600F023F82420B4
:1025200084F839002068C16821F40051C160204658
:1025300000F056FD2068016921F490410161206896
:10254000416921F02A0141612068C16841F40051CC
:10255000C160E563202084F8390084F83A00002047
:1025600070BD00002DE9F04186B006461421684692
:10257000FDF782FE2A49306888424DD1294800255E
:10258000016841F0100101600068264900F0100068
:1025900014390590086840F002000860086800F0EF
:1025A00002000590086840F00100086008680224F5
:1025B00000F001000590802003274FF007088DE808
:1025C000B10169461848FEF7B5FF20028DE8B10158
:1025D00069461648FEF7AEFF164C154820604FF0CE
:1025E0000060C4E901054014C4E903506561380482
:1025F000A561C4E9075020466562FEF7E7FE08B111
:10260000FEF79BFA7463002205212520A663FFF7DD
:10261000EFF82520FFF7DEF806B0BDE8F0810000F6
:102620000010014044380240000402400000024013
:102630004064024000040020F8B5044690F83A00D7
:1026400020283CD1C1B3BAB394F83800012836D061
:10265000012084F83800A162A2850025E5632220CC
:1026600084F83A00636B1748D863636B16481864A4
:10267000636B1648D864606B134605650846666B45
:10268000216802463046091DFEF70AFF20680168EE
:102690004168009184F83850C16841F48071C1608C
:1026A0002068416941F0010141612068416941F0C0
:1026B000400141610020F8BDFFE70120FBE7022057
:1026C000F9E70000D52E0008112F00088B2E000816
:1026D000704770477047FEE7012251030148FFF73A
:1026E00013B800000018024000224FF4FF710148A7
:1026F000FFF70AB800180240104810B50E490160F3
:10270000062141604FF08041816000214FF400328A
:10271000C0E9031212014261017641768176C176E9
:1027200001774177FEF72BFC002803D0BDE810406D
:10273000FEF703BA10BD000000640040CC02002088
:102740000F4810B50D4901600321416000214FF48D
:10275000A0228160C0E903124FF4C00242610176F9
:1027600041768176C17601774177FEF708FC002833
:1027700003D0BDE81040FEF7E0B910BD006800408E
:10278000F4020020094808B5016841F480010160A5
:102790000068002200F48000009005213A20FFF735
:1027A00027F8BDE808403A20FFF714B83038024057
:1027B0002DE9F04F87B014216846FDF75DFD4948CB
:1027C0000026016841F040010160016801F040010C
:1027D0000591016841F002010160016801F0020108
:1027E0000591016841F008010160016801F00801EC
:1027F0000591016841F001010160016801F00101EA
:102800000591016841F080010160016801F08001DB
:102810000591016841F020010160016801F020018B
:102820000591016841F0100101600068DFF8B8907F
:1028300000F01000059000224FF400514846FEF7CA
:1028400063FFDFF8A8A000223C215046FEF75CFFA2
:1028500001224FF4FF714846FEF756FF0022402147
:102860002348FEF751FF0122DFF888B0D70239462E
:102870005846FEF749FF4FF48048012241461C4864
:10288000FEF742FF012442F2FE10CDE900040225CA
:1028900069464846CDE90245FEF74CFE3C208DE8EE
:1028A0003100694650460395FEF744FE40208DE80E
:1028B000510069460E480396FEF73CFECDE90074D0
:1028C00069465846CDE90245FEF734FECDE900845D
:1028D00069460748CDE90245FEF72CFE07B0BDE882
:1028E000F08F00003038024000180240001C024007
:1028F0000014024000100240104810B50E4901605B
:102900004FF482714160002102228160C0E903120C
:1029100001224261520282612022C0E90721416204
:1029200081620A21C162FFF72DFA002803D0BDE8B9
:102930001040FEF702B910BD005001401C030020FA
:1029400010B586B0002416480094019402940394B4
:1029500004944FF08041059401605321C0E90114B3
:1029600040F2E731C0E903148461FFF7D1FB08B1FD
:10297000FEF7E3F84FF48050009069460848FFF7EF
:1029800010FC08B1FEF7D9F8049404A90448059492
:10299000FFF776FB002801D0FEF7CFF806B010BD98
:1029A000740300200D4810B50B4901604FF4E1316C
:1029B000416000214FF480628160C0E9031204226B
:1029C000C0E90521C161FFF79BFD002803D0BDE8E8
:1029D0001040FEF7B2B810BD00100140C003002047
:1029E000FEE7A2F50072053A02D0012A04D17C303C
:1029F000002801D000F02AB87047A2F50072013A11
:102A000002D0012A04D14030002801D000F037B9AB
:102A100070477047C0ED051A80ED0B3A80ED062A2D
:102A2000C0ED082A80EC030A9FED060A80ED030A38
:102A300080ED040A80ED070A80ED090A80ED0A0A9C
:102A400070470000000000007047000010B5044609
:102A50002DED048B088842BA6280488840BA00B2E3
:102A600020808B885BBAE3818979217388B1208AC1
:102A7000101A01B2606811F5805F0844606002DAE4
:102A800000F5005004E0B1F5805F02DDA0F50050D4
:102A90006060228260689FED188B9FED199B4FF458
:102AA000183100280EDB90FBF1F201FB1200FDF75C
:102AB00076FD53EC182BFDF791FC53EC192BFDF729
:102AC000FFFC12E0404290FBF1F201FB1200FDF727
:102AD00066FD53EC182BFDF781FC53EC192BFDF729
:102AE000EFFC53EC182BFDF776FCFDF77CFDA060A6
:102AF000BDEC048B10BD000000000000008076409B
:102B0000000000000000034101223C210148FEF7C3
:102B1000FBBD0000001C0240002826D00188C1F344
:102B20000A0212490A8042788378D20842EA4312A4
:102B3000C2F30A024A808278C378920942EA830289
:102B4000037942EA8322C2F30A028A800279437936
:102B5000520842EAC312C2F30A02CA8042799209B9
:102B60000A724079C0F301104872704730000020AB
:102B700001B582B04FF47A700090012301AA02A936
:102B80000248FFF775F99DF804000EBD1C030020F4
:102B900038B504461248134B0068B0FBF3F04FF40D
:102BA0007A73584300906068B0F5827F0DD10B4670
:102BB000009200228021204600F016F870B1606D6E
:102BC00040F020006065032038BD009830B1401E01
:102BD000009020688068C0430006F6D5002038BD0C
:102BE0004C00002000366E012DE9F0411D461746CD
:102BF0000E460446DDF8188008E0681C06D0FEF793
:102C000089FDA0EB0800A8420BD255B1206880686E
:102C100036EA000030D00020B842EED10020BDE8F6
:102C2000F0812068416821F0E00141606068B0F502
:102C3000827F0BD1A068B0F5004F02D0B0F5806F55
:102C400004D12068016821F040010160A06AB0F55C
:102C5000005F09D12068016821F4005101602068FB
:102C6000016841F400510160012084F85100002006
:102C700084F850000320D2E70120CDE770474A884E
:102C800052BA02808A8852BA8280897981707047EC
:102C9000FEF746BD30B593B030216846FDF7ECFA3B
:102CA00014210CA8FDF7E8FA19480025016841F045
:102CB00080510160006800F0805011901548016853
:102CC00041F4404101600068022400F4404011904A
:102CD00001200090000401908001CDE9064008AA7F
:102CE0000420A82182E813000B906846FEF79CFEA2
:102CF0000CA90F2081E831004FF4A0500F90E002A2
:102D0000109005210CA8FEF7A5FD13B030BD000002
:102D100040380240007000400548016841F47001ED
:102D2000016003494FF0006080390860704700007F
:102D300088ED00E010B501F093FEBDE810400148B9
:102D4000FFF79BBA74030020F0B50268254C264DAE
:102D5000264E274F274B4FF0804CA04209D06045AC
:102D600007D0A84205D0B04203D0B84201D0984263
:102D700004D122F0700E4A6842EA0E02A0421BD033
:102D8000604519D0A84217D0B04215D0B84213D030
:102D9000984211D0184DA8420ED0184DA8420BD021
:102DA000174DA84208D0174DA84205D0164DA8428D
:102DB00002D0164DA84203D122F44075CA682A43B6
:102DC0004D6922F080022A4302608A68C2620A6862
:102DD0008262A04201D0984201D1096901630121B8
:102DE0004161F0BD000001400004004000080040C7
:102DF000000C00400004014000400140004401403C
:102E00000048014000180040001C00400020004025
:102E100010B5846842EA032224F47F440A43224323
:102E2000826010BD826822F070020A4342F00701FE
:102E30008160704710B5036A046A24F001040462DB
:102E4000846924F0F00444EA021423F00A020A43DD
:102E50008461026210BD10B5036A23F0100303629F
:102E60008369046A23F4704343EA023224F0A00326
:102E700043EA01118261016210BD10B5806B00212F
:102E8000C185C184FFF7B0FA10BD70B5846B2068AE
:102E9000406994F83910C0F3C0100025212904D1ED
:102EA00018B1E584204600F046F82068406994F89F
:102EB0003A10C0F38010222904D118B1E5852046CC
:102EC00000F02BF8E06B40F01000E0632046FFF7C5
:102ED0008BFA70BD10B50146806B09680968C90599
:102EE00013D40021C1850168CA6822F48072CA60C7
:102EF00001684A6922F001024A6101684A6922F0C8
:102F000040024A61202180F83A10FFF7E1FB10BD32
:102F100010B5806BFFF7DDFB10BD0168CA6822F4B5
:102F20009072CA6001684A6922F001024A61202158
:102F300080F83A1070470168CA6822F0C002CA607F
:102F4000202180F83910704710B590F83A102229E6
:102F500001D0022010BD8168B1F5805F11D00169F8
:102F6000002901681FD0496801F07F03816A4A1C6B
:102F700082620B70C18D491E0904090CC18518D0ED
:102F80002BE00269816A002A0268526805D0D2B239
:102F90000A80816A491C8162ECE7C2F308020A8058
:102FA000816A891CF7E74A68816A4B1C83620A7050
:102FB000E0E70168CA6822F02002CA600168CA68B6
:102FC00022F48072CA6001684A6922F001024A61F3
:102FD000202180F83A10FFF77BFB002010BD000095
:102FE0002DE9F041044600680169E26821F440518E
:102FF000114301612169A068E269084361691143D5
:1030000008432168CA6849F20C639A430243CA60C4
:1030100020684169A26921F4407111434161E0696E
:10302000192764253226B0F5004F354A3549206806
:103030004FF0000806D0884201D0904236D1FEF70A
:10304000B3FC35E0884201D0904202D1FEF7ACFCDF
:1030500001E0FEF799FC61684A18A0FB070148EB04
:103060000803FDF7BFF80146B0FBF5F00201B1FB24
:10307000F5F06FF01803584301EB800006EBC00039
:10308000B0FBF5F000F0F80002EB4002B1FBF5F008
:10309000584301EB800006EBC000B0FBF5F000F0F8
:1030A0000700216810448860BDE8F081FEF76CFCE1
:1030B00061688B0F8A00A0FB0701FDF793F80146BA
:1030C000B0FBF5F06FF01802504301EB800006EB07
:1030D0000010B0FBF5F000F0F002B1FBF5F002EBF0
:1030E0000012B1FBF5F06FF01803584301EB8000BC
:1030F00006EB0010B0FBF5F000F00F00D1E7000088
:10310000001401400010014090F83910212901D02D
:10311000022070478168B1F5805F016A0BD04A1CBC
:103120000262026809785160C18C491E0904090CC9
:10313000C1840ED017E009880268C1F3080151600C
:1031400001690029016A02D0491C0162ECE7891C6F
:10315000FBE70168CA6822F08002CA600068C168A3
:1031600041F04001C16000207047000010B5054BE0
:10317000054A0649064800F00DF8BDE8104004482D
:10318000FFF734B9192B0008B40300200004002015
:10319000C0030020F8B5144602681D461268D243E9
:1031A000D2062BD40A68136823F001031360026867
:1031B0000023166852680092096862894968511AAA
:1031C000CEB2217A51B123722168FFF735FA6089B6
:1031D000B04213D1002D11D060680AE001212172A4
:1031E0006168FFF729FA6089B04207D1002D05D048
:1031F000206801B0AC46BDE8F0406047F8BDFEE78E
:1032000010B5122001F08CFB0C4C2060122001F054
:1032100087FB606004F10C000068C16841F0100198
:10322000C1600020207212206081024604F10C006F
:103230002168BDE81040FFF7FFB90000B40300208B
:1032400010B504462DED028BB6EE000A9FED298ADB
:10325000DFED298A4430B0EE483AF0EE482AB0EE6D
:10326000682AF0EE481AB0EE681AF0EE680AFFF726
:10327000D1FBB0EE483AF0EE482AB0EE682AF0EE04
:10328000481AB0EE681AF0EE680AB1EE040A04F1CA
:103290001400FFF7BFFB002084F878007C34B0EE08
:1032A000483AF0EE482AB0EE682AF0EE481AB0EE3E
:1032B000681AF0EE680AB6EE000A04F14400FFF75F
:1032C000A9FBB0EE483AF0EE482AB0EE682AF0EEDC
:1032D000481AB0EE681AF0EE680AB1EE040A04F17A
:1032E0001400FFF797FB012084F87800BDEC028BF7
:1032F00010BD000000409C450000000003B4019890
:103300004100009850EAC12018BF04204A0D18BFA0
:1033100040F0010040F2FF72B2EB515F08BF40F095
:103320000200012808BF052002B0704741000802D2
:1033300018BF04200A0E18BF40F001004FF07F4272
:1033400032EA010108BF40F00200012808BF052051
:1033500070470907090E002804DB00F1E02080F81F
:103360000014704700F00F0000F1E02080F8141DF9
:10337000704700000000000070B5C1482DED020B41
:103380002DED0E8B82B0119D25F000449FEDBEDB2C
:103390009FEDBFEB84423EDBA4F140511098A1F1B8
:1033A0007F6108430FD0BC48844202DC28D11098CA
:1033B00030B39DED100B02B0BDEC0E8B02B0BDE83A
:1033C000704001F039B89DED100B53EC1D2B51EC02
:1033D000100BFDF703F89DED100B41EC180B53ECAF
:1033E0001E2B51EC100BFCF7F9FF53EC182BFCF7DC
:1033F0004EFF41EC100B02B0BDEC0E8B02B070BD65
:10340000012001F06BF802B0BDEC0E8B02B0BDE8FC
:10341000704001F01DB8A1489FEDA18B844256DA9F
:103420009DED100BB4F1795F0ADA51EC100BFFF748
:1034300065FF042808BF01F01BF89DED100BDAE7CB
:1034400053EC102B51EC100BFCF7C8FF41EC190B9F
:1034500095480621B0EE490AF0EE690A784400F07A
:10346000D7FE53EC192B51EC100BFCF7B7FF41ECD6
:103470001A0B8E48B0EE490AF0EE690A042178442E
:1034800000F0C6FE53EC192B51EC100BFCF7A6FF15
:1034900053EC182BFCF7FBFE41EC100B51EC1A0B14
:1034A00053EC102BFDF70CF8CDE900019DED000B5E
:1034B00053EC102B9DED100B51EC100BFCF78EFF15
:1034C0009DED101B53EC112BFCF7E1FED2E09DEDBE
:1034D000100B51EC100B01F007F853EC182BFCF714
:1034E0007AFF9FED730BCDE9000153EC102B9DED9E
:1034F000000B51EC100BFCF771FF41EC190B6E48FF
:103500000621B0EE490AF0EE690A784400F080FE28
:1035100053EC192B51EC100BFCF760FF41EC1B0B2B
:103520006648B0EE490AF0EE690A0421784400F0DA
:103530006FFE53EC192B51EC100BFCF74FFF53ECC3
:10354000182BFCF7A4FE41EC1C0B51EC190B01F0FD
:1035500001FD41EC180B5A489FED5BABA04222DC09
:1035600053EC1C2B51EC1B0BFCF7AAFFCDE900011F
:103570009DED000B51EC180B53EC102BFCF72EFFBC
:1035800053EC182BFCF783FE53EC1A2BFCF726FFA9
:1035900053EC1D2BFCF71CFF53EC1E2BFCF71BFF01
:1035A00041EC100B5FE08DED008B002000909DED55
:1035B000000B51EC180B53EC102BFCF768FE9DED43
:1035C000000B41EC1E0B53EC102B51EC100BFCF7D5
:1035D00005FF53EC192BFCF7FEFE53EC1E2BFCF7FA
:1035E0006FFF41EC190B53EC1C2B51EC1B0BFCF740
:1035F00067FF41EC1B0B53EC1A2B51EC190BFCF73A
:10360000EDFE53EC1D2BFCF7E6FE41EC190B53ECE1
:103610001A2B51EC180BFCF7E1FE53EC1B2BFCF7BB
:10362000DDFE53EC192BFCF7D3FE9DED000B41ECB6
:10363000180B53EC1A2B51EC100BFCF7CFFE9FED3F
:10364000249B53EC192BFCF7C6FE41EC100B51ECFC
:10365000180B53EC102BFCF7BBFE53EC192BFCF7AB
:10366000BAFE41EC100B002D3FF7C5AE51EC100B2C
:1036700081F0004141EC100BBDE6000000000000AD
:103680000000F03F00000000075C143326A6913CC8
:10369000182D4454FB21F93F0000F07F0000E03F6B
:1036A000000000000000F03FD81B0000E61B0000F7
:1036B000000000000000E03F2A1B0000381B000053
:1036C0003333EF3F00000000000000000000004026
:1036D000182D4454FB21E93F10B54FF00E402DED5D
:1036E000028BB0EE408A18EE104A00EB4400B0F1B5
:1036F000506F4AD84FF0FC40B0EB440F22D2B0EEEE
:10370000C80AF7EE000A30EEC00AF6EE000A60EED4
:10371000208A18EE900A01F054FC01EE100A14F011
:10372000004F1DBFDFED2D0A9FED2D0AB1EE411AAE
:10373000DFED2C0A08BF9FED2C0AF8EE001A21EEEF
:10374000218A05E0DFED290A68EE088AB0EE600AFA
:103750009FED271ADFED271A30EE080A48EE811A8E
:103760009FED251A08EEA11ADFED241A48EE811A02
:103770009FED231A08EEA11A68EE281ABDEC028B01
:1037800001EE810A30EE200A10BD4FF0E440B0EBAC
:10379000440F0CD918EE100AFFF7C8FD042808BF23
:1037A00000F084FEB0EE480ABDEC028B10BD4FF075
:1037B0007F40B0EB440F07D2B0EE480ABDEC028B5D
:1037C000BDE8104000F064BE012000F087FEBDECB3
:1037D000028BBDE8104000F061BE00000000C9BFD0
:1037E00022AAFDB90000C93F22AAFD39000000004D
:1037F00024FE1C3DC78AD83C1E67383D1B93993D6B
:10380000AFAA2A3E10EE100A10B510EE901A4FF033
:10381000684202EB40032DED028BB3F1654F3CBFD4
:1038200002EB4102B2F1654F7CD200BFC0F3C75337
:10383000C1F3C7529A1A1B2A09DD10F0004F14BFBA
:103840009FED6E0A9FED6E0ABDEC028B10BD12F16A
:103850001A0F1BDA11F0004F09D010F0004F0CBF07
:103860009FED680A9FED680ABDEC028B10BD80EEEB
:10387000208A18EE100AFFF759FD042808BF00F04F
:1038800015FEB0EE480ABDEC028B10BD4200B2EB53
:10389000410F37D910F0004F19BFDFED5C1A9FEDD3
:1038A0005C1ADFED5C1A9FED5C1AB0EE602A0A46E6
:1038B000F1EE400A80F00041B0EE420A10460A1ACA
:1038C0005200B2F1807F34D2484010F0004FDFED5B
:1038D000532A9FED533A1DBFBEEE002A71EEE21A45
:1038E00031EE431AB6EE002A04BF71EEA21A31EE91
:1038F000031AF0EE402A42EE602A40EE020A82EEFF
:10390000A02A18E011F0004F04BF9FED461AF0EE18
:10391000411AD4D010F0004F1CBFDFED431A9FEDC9
:10392000431A00E026E004BFDFED411A9FED411A83
:10393000C5E780EE202A22EE020ADFED3F0ADFED26
:103940003F2ABDEC028B40EE202ADFED3D0A40EE1F
:10395000220ADFED3C2A40EE202ADFED3B0A40EE52
:10396000220A22EE000A00EE201A31EE020A30EEA0
:10397000210A10BD4FF07F42B2EB400F28BFB2EBDF
:10398000410F05D2BDEC028BBDE8104000F083BDB5
:1039900040EA01035B0008BF41F0FF410BD0B2EBEE
:1039A000400F08BFB2EB410F08D120F0804000EE7D
:1039B000100A21F0804100EE901A37E7B2EB400F79
:1039C00012BF5FEA410240F0FF4001F000413FF4C6
:1039D0002DAF4A0092EA40033FF528AF002AACBF62
:1039E0009FED1A1A9FED1A1A20EE010A60EE810A65
:1039F00010EE100A10EE901A18E70000DB0FC9BF96
:103A0000DB0FC93FDB0F4940DB0F49C00000C9BFD6
:103A100022AAFDB90000C93F22AAFD390060ED3E8F
:103A2000C30ACE3700000000000049C022AA7DBAB8
:103A30000000494022AA7D3A2DAD65BD8FB8D53D25
:103A40000FB511BE61C84C3EA8AAAABE0000804FA7
:103A50000000802F0000000010B52F499FED2C1BA7
:103A60002DED020B84B0059820F000408842D8BFAD
:103A70009DED040B2DDD2949884209D1049840B9F8
:103A80004FF0010000F02AFD00F0E2FC06B010BD8E
:103A900005DB9DED040B00F0CFFC06B010BD6846C1
:103AA0009DED040B00F0E0F810F0030004BF9DED65
:103AB000021B9DED000B0CD001280ED09DED021BCA
:103AC0009DED000B022817D0012000F01DFC06B070
:103AD00010BD00F0E5FA06B010BD9DED021B9DED96
:103AE000000B012000F010FC51EC100B81F00041A4
:103AF00006B041EC100B10BD00F0D2FA51EC100BE7
:103B000081F0004106B041EC100B10BD0000000038
:103B10000000000000000000FB21E93F0000F07FF2
:103B200010B52F499FED2C1B2DED020B84B005988D
:103B300020F000408842DCBF00209DED040B32DD08
:103B40002849884209D1049840B94FF0010000F09B
:103B5000C5FC00F07DFC06B010BD05DB9DED040B3F
:103B600000F06AFC06B010BD68469DED040B00F045
:103B70007BF810F0030011D0012818D09DED021B36
:103B80009DED000B02281AD000F08AFA51EC100BC0
:103B900081F0004106B041EC100B10BD9DED021B01
:103BA0009DED000B012000F0AFFB06B010BD9DEDB8
:103BB000021B9DED000B00F073FA06B010BD012052
:103BC00000F0A2FB51EC100B81F0004106B041EC7B
:103BD000100B10BD000000000000000000000000FD
:103BE000FB21E93F0000F07F00B52DED048BB0EE26
:103BF000409AF0EE609A83B051EC190BFCF7D4FDBB
:103C000041EC180B18EE100A18EE901A8DED008B8F
:103C1000002818BF0120084320F00040C0F17F6059
:103C200000F1E040C00F14D019EE101A19EE900AFE
:103C30008DED009B002918BF0121084320F00040B2
:103C4000C0F17F6000F1E040C00F04BF012000F030
:103C500045FCB0EE480A03B0F0EE680ABDEC048BF8
:103C600000BD0000000000002DE9F14F04462DEDDD
:103C7000020B2DED088B8AB09FEDE70B80ED020B58
:103C8000139EE74826F0004585420ADC9DED120BA5
:103C9000002084ED000B0AB0BDEC088B03B0BDE83A
:103CA000F08FE0489FEDE0AB9FEDE1BBA84247DD20
:103CB000E14F9FEDE39B9FEDE48B9DED120B53ECE9
:103CC0001A2B51EC100B002E1CDDFCF781FB41EC94
:103CD000100BBD4208D053EC1B2B51EC100BFCF722
:103CE00077FBC4E900010BE053EC192B51EC100BEE
:103CF000FCF76EFB53EC182BFCF76AFBC4E90001E0
:103D00000120C8E7FCF7C3FA41EC100BBD4208D014
:103D100053EC1B2B51EC100BFCF7B9FAC4E9000172
:103D20000BE053EC192B51EC100BFCF7B0FA53ECF1
:103D3000182BFCF7ACFAC4E900014FF0FF30AAE7FA
:103D4000C348A84279DB9DED120B51EC100B00F03B
:103D5000CBFB41EC180B9FEDC00B53EC102BFCF789
:103D60003DFB9FEDBF1B53EC112BFCF790FAFCF7CA
:103D70008CFD0746FCF713FC41EC190B53EC1A2B96
:103D8000FCF72CFB53EC182BFCF725FB41EC180B34
:103D900053EC1B2B51EC190BFCF720FBDFF8C8A2EE
:103DA00041EC100B4FEA15580125FA4453EC102B47
:103DB00051EC180BFCF70CFB032DC4E900013DD0BE
:103DC000C1F30A5005EB4511A8EB000011398142FF
:103DD00034DA0AEB051BB0EE48AA9BED000BF0EEBF
:103DE00068AA53EC102B51EC190BFCF7F7FA41ECD5
:103DF0001B0B51EC1A0B53EC1B2BFCF7E9FA41ECB3
:103E0000180B51EC1A0B53EC182BFCF7E1FA53EC9E
:103E10001B2BFCF7DDFA9BED020B41EC1A0B53EC6C
:103E2000102B51EC190BFCF7D9FA53EC1A2BFCF7B9
:103E3000CFFA41EC100B6D1CB8E70EE0002EA8BFC6
:103E40003846BFF628AF94ED000B51EC100B81F013
:103E50000041C4E9000178421DE7C6F3130040F4B5
:103E6000801EC6F30A50A0F2F530471100F01F057E
:103E7000C5F12000DDF848B00890002006900790BA
:103E80000520EC467949002D07EB0002794408BF74
:103E900051F8221009D051F8223001EB8201AB40D9
:103EA0004A68089922FA01F11943A1FB0E26A1FBE9
:103EB0000B131A449A4234BF0123002303EB060874
:103EC0000CEB8003D3E901A60E448E4234BF0121DE
:103ED000002192448A4411B1924502D903E09245EF
:103EE00001D2012100E00021C3E901A641444CF8C0
:103EF0002010011EA0F10100C4DC029800F1005066
:103F0000850F0298DDE903678000DDF81480FCF777
:103F100046FB41EC1A0B3046FCF7AAFC9FED541B04
:103F200053EC112BFCF75AFA41EC1B0B3846FCF70B
:103F30009FFC9FED511B53EC112BFCF74FFA41EC0A
:103F4000180B4046FCF794FC9FED4D1B53EC112BD6
:103F5000FCF744FA41EC190B51EC180B53EC192BFC
:103F6000FCF795F953EC1B2BFCF791F953EC1A2B4A
:103F7000FCF78DF9CDE90801002008909DED080BB4
:103F800053EC1A2B51EC100BFCF722FA53EC1B2BC1
:103F9000FCF71EFA53EC182BFCF71AFA53EC192B0A
:103FA000FCF719FA9FED381B53EC112BFCF716FAAE
:103FB0009FED370B41EC180B53EC102B9DED080BCC
:103FC00051EC100BFCF70AFA53EC182BFCF75FF9D5
:103FD0009FED310B41EC180B53EC102B9DED080BB2
:103FE00051EC100BFCF7FAF953EC182BFCF74FF9D6
:103FF00041EC100B139810F0004F06D06D4251ECBD
:10400000100B81F0004141EC100B284684ED000BB1
:1040100041E6000000000000000000000000000079
:10402000FB21E93F7CD9024000004054FB21F93FCD
:104030003163621A61B4D03DFB21F93F00000000FA
:104040000000601A61B4D03D7370032E8A19A33B3F
:10405000FB2139410000000083C8C96D305FE43F97
:10406000000000000000E03F0A13000058120000AA
:10407000000000000000103E000000000000103CA6
:10408000000000000000103A182D4454FB21F93DB7
:104090003326A611460B113C00000054FB21F93DCC
:1040A00010B52DED040B2DED088B82B0B0EE419ACA
:1040B000F0EE619A0B9820F000449FED4BABB4F109
:1040C000795F11DA9DED0A0B51EC100BFCF7DDFB6B
:1040D000002801BFB0EE4A0AF0EE6A0A02B0BDEC59
:1040E000088B04BF04B010BD9DED0A0B53EC102BE0
:1040F00051EC100BFCF772F941EC180B3C4806210F
:10410000B0EE480AF0EE680A784400F081F853EC0B
:10411000182B51EC100BFCF761F99DED0A0B41ECEB
:104120001B0B53EC192B51EC100BFCF757F941EC1E
:10413000190B53EC1B2B51EC180BFCF74FF953ECFC
:10414000192BFCF745F99FED2C0B41EC190B53ECA7
:10415000102B51EC180BFCF741F941EC100B2848DF
:10416000844210DA53EC192B51EC100BFCF730F9A8
:1041700053EC1A2BFCF72FF941EC100B02B0BDECFD
:10418000088B04B010BD1F48A042BCBF9FED1E1B92
:104190008DED001B06DBA4F50010019000200090BF
:1041A0009DED001B51EC100B53EC112BFCF710F99B
:1041B0009DED000B41EC180B53EC102B51EC1A0B3E
:1041C000FCF706F941EC1A0B53EC192B51EC180BC8
:1041D000FCF7FEF853EC1A2BFCF7FDF841EC100B42
:1041E000CCE7000000000000000000000000F03FED
:1041F0007C0F000000000000000000000000E03F15
:104200003333D33F0000E93F000000000000D23FFD
:1042100070B504462DED028B4D1E00EBC500B0EECF
:10422000408AF0EE608A90ED000B35F0060017D062
:1042300053EC182B51EC100BFCF7D0F841EC100BA1
:104240006D1E04EBC50090ED001B51EC100B53EC00
:10425000112BFCF71CF841EC100B35F00600E7D1F0
:10426000022D36D0042D1CD0062D1CBFBDEC028BB8
:1042700070BD53EC182B51EC100BFCF7AFF894ED1C
:104280000A1B53EC112BFCF702F853EC182BFCF72C
:10429000A5F894ED081B53EC112BFBF7F8FF41EC4C
:1042A000100B53EC182B51EC100BFCF797F894ED16
:1042B000061B53EC112BFBF7EAFF53EC182BFCF712
:1042C0008DF894ED040B53EC102BFBF7E0FF41EC61
:1042D000100B53EC182B51EC100BFCF77FF894EDFE
:1042E000021B53EC112BFBF7D2FF53EC182BFCF7FE
:1042F00075F894ED001B53EC112BFBF7C8FFBDECD8
:10430000028B41EC100B70BD31B504462DED040B52
:104310002DED0A8BB0EE41BAF0EE61BA0B989DED2F
:104320000A0B20F00040B0F1795F0DDA51EC100B70
:10433000FEF7E4FF042808BF00F09AF89DED0A0B91
:10434000BDEC0A8B05B030BD53EC102B51EC100BBB
:10435000FCF744F841EC180B9DED0A0B53EC182BBD
:1043600051EC100BFCF73AF841EC190B2C48B0EE6D
:10437000480AF0EE680A05217844FFF749FF9FEDEF
:104380002ACBB0EE40AAF0EE60AA9CB353EC1C2BF3
:1043900051EC190BFCF722F841EC1C0B53EC1A2BD7
:1043A00051EC190BFCF71AF89FED210B41EC190B9E
:1043B00053EC102B51EC1B0BFCF710F853EC192BA2
:1043C000FCF706F853EC182BFCF708F853EC1B2B02
:1043D000FBF7FEFF53EC1C2BFBF7FAFF9DED0A1BCE
:1043E00053EC112BFBF7F7FFBDEC0A8B05B041EC4A
:1043F000100B30BDFFE753EC1A2B51EC180BFBF7F9
:10440000EDFF53EC1C2BFBF742FF53EC192BFBF792
:10441000E5FF9DED0A1B53EC112BFBF738FFE3E79B
:10442000040E000000000000495555555555C5BF04
:10443000000000000000E03F10B553EC102B51ECE1
:10444000100BFBF724FF41EC100B10BD0000000027
:104450009FED050B10B553EC102B51EC100BFCF736
:104460002FF841EC100B10BD000000000000000010
:104470009FED050B10B553EC102B51EC100BFBF717
:10448000ADFF41EC100B10BD00000000000000105B
:1044900030EE000A704730EE200A7047DFED020A66
:1044A00080EEA00A70470000000000009FED020AA5
:1044B00020EE000A704700000000001002E008C86B
:1044C000121F08C1002AFAD170477047002001E08E
:1044D00001C1121F002AFBD170470000014908608A
:1044E000704700005800002082B0CDE9000121F0A3
:1044F000004001909DED000B02B051EC100B704795
:104500002C48D0ED030A90ED051AD0ED023A90ED5B
:10451000040A60EE814A23EE814A23EEA02A63EE6C
:10452000802A20EEA05A60EE803A60EE001A21EE5A
:10453000013AF7EE000A20EE011AB0EE000AF0EEA2
:10454000605A1D4841EEC05A45EE400A43EE405ABB
:10455000C0ED005A73EEC45A73EE843A65EE805A89
:1045600063EE803AC0ED015A74EEA25A74EEE22A6C
:1045700065EE805A62EE802AC0ED025AC0ED033A21
:10458000F0EE603A41EEC00A43EE403A31EE423A74
:1045900031EE021A23EE003AC0ED043A21EE001A81
:1045A00080ED053AC0ED062A80ED071AC0ED080A35
:1045B0007047000008000020D400002070B52DEDE9
:1045C000088BF0EE40BAB0EE43BAB6EE000AF0EE59
:1045D000609A6BEE00AA9FED8F0AF5EEC0BAB0EEBE
:1045E00041AA21EE808A62EE008A22EE809A8A4DEC
:1045F0008A4CF1EE10FA09D1F5EEC09AF1EE10FAFC
:1046000004D1B5EEC0AAF1EE10FA7DD02BEEAB0AC4
:1046100009EEA90A0AEE0A0A00F056F969EE802AA4
:1046200095ED083A2AEE001A6BEE800A22EE832AF4
:10463000D5ED071A95ED060A01EE612A21EE001A62
:1046400060EEA11A00EEC31A42EEC01A94ED010A00
:10465000D4ED072A20EE023A60EE010A20EE210A8C
:1046600040EE8B2AC4ED072AD4ED060A43EE0B0A6E
:10467000C4ED060A94ED083A00EE0B3A84ED083AD0
:1046800094ED090AF4EEC00AF1EE10FA01DD84EDB2
:10469000060AD4ED063AF1EE400AF4EEE03AF1EE05
:1046A00010FA01D2C4ED060AF4EEC02AF1EE10FAB7
:1046B00001DD84ED070AD4ED072AF4EEE02AF1EEDD
:1046C00010FA01D2C4ED070AB4EEC03AF1EE10FAC6
:1046D00002DCB0EE430A01E084ED080AB4EEE00A21
:1046E000F1EE10FA01D2C4ED080AD4ED060A94EDF9
:1046F000000A40EE020A38EE208AD4ED070A40EEA6
:10470000010A78EEA08A00E005E0D4ED080A40EE48
:10471000210A39EE209A94ED032A94ED041AD4ED7F
:10472000051A22EE483AF0EE412A94ED020AF0EE24
:10473000420A02EEE83AF0EE403A01EEC93A43EEA0
:104740002A3A28EE003A01EE093AC4ED023A01EEA7
:10475000E83A43EE2A0A28EE803A29EE000A02EEF1
:10476000493A02EE280AC4ED030A01EE883A02EE45
:10477000C80A03EE2A1A40EE2A1A23EEA30A84ED91
:10478000041A00EEA00AB0EE413AC4ED051A03EE99
:10479000030A01EEA10A00F097F8D4ED020A60EED8
:1047A000800AC4ED020AD4ED030A60EE800AC4ED6B
:1047B000030AD4ED040A60EE800AC4ED040AD4EDC5
:1047C000050A20EE800A84ED050AFFF799FE95EDB3
:1047D000060AFEF781FF9FED128A124C20EE080AAE
:1047E00084ED020AD5ED080A95ED070AFFF70AF8ED
:1047F00020EE080A84ED000AD5ED000A95ED030AC3
:10480000FFF700F820EE080A84ED010ABDEC088BE2
:1048100070BD000035FA8E3CD40000200800002056
:10482000E12E65425C00002010B52448234C2DED9C
:10483000028B503CB0F9160094ED121A00EE100AEB
:104840009FED1D8AF8EEC00A80EE810A10EE100A74
:10485000FBF7B6FE41EC100BFEF78EFD9FED181B2B
:1048600051EC100B53EC112BFBF7B8FDFBF7BBFE23
:10487000E06094ED0E0AD4ED0A2AB0EE483A02EE5A
:10488000880A84ED0E0A94ED0F0AD4ED081A01EEA1
:10489000880A84ED0F0A94ED100A94ED092A02EEBD
:1048A000080A84ED100A2C3494EC030ABDEC028B48
:1048B000BDE81040FFF782BE6F12833AAC000020C3
:1048C00000000020DCA54C4010EE100AF6EE000AB5
:1048D000074960EE200AA1EB600000EE100A20EE0E
:1048E000801AF7EE080A41EE400A20EE800A70476F
:1048F000DF59375FFCF71CFFFEF7CCF9FDF758FFD7
:10490000FDF740FFFDF7F8FFFEF71AF8FEF74AF84B
:10491000FDF7F2FEFDF714FFFBF7D6FFFEE7000000
:10492000F0B50B30154D20F007010024144A0FE0BC
:1049300003688B420BD38B4205D95E1A4318476834
:10494000C3E9006700E04368136002C004E0021D91
:1049500010680028ECD12046002802D1286808B150
:104960000020F0BD064A07481060074A121A22F0DC
:104970000702C0E9002401202860D7E75400002086
:10498000500000209C0400209806002030B56420D0
:104990002DED028B85B0FCF7BBFD752000F0EEF924
:1049A0002C490024142208702B496846FBF74BFC65
:1049B0003220FCF7ADFD6D4605EB4400417815F85B
:1049C000140000F02BFA0A20FCF7A2FD641CE4B2EC
:1049D0000A2CF1D300F032F90520FCF799FD1F4CA9
:1049E000A4F15005B4F9140095ED121A00EE100A66
:1049F000F8EEC00A80EE810A10EE100AFBF7E0FD27
:104A000041EC100BFEF7B8FC51EC100BFBF7EBFD83
:104A100008EE100AB4F9160095ED121A00EE100A0D
:104A2000F8EEC00A80EE810A10EE100AFBF7C8FD0E
:104A300041EC100BFEF7A0FC51EC100BFBF7D3FD83
:104A400000EE900AB0EE480A00F008FA05B0BDEC9E
:104A5000028B30BD0000002000500008AC00002098
:104A60007FB5002000900190029003900E226946CD
:104A70003B2000F0A1F9BDF800006B4B40BA04B236
:104A80001C80BDF8020040BA01B25980BDF8040094
:104A900040BA00B29880BDF8062052BA12B29A818C
:104AA000BDF808505E8B6DBAAD1BDD81BDF80A50B4
:104AB0009E8B6DBAAD1B1D8200EE102ABDF80C5006
:104AC000DE8B6DBAB8EEC00AAD1B5D829FED571A42
:104AD000A3F15002C0EE010AB3EE050A30EE800ADF
:104AE00082ED110A00EE104AB8EEC00A9FED501A8E
:104AF00020EE010A82ED0B0AD2ED130AB4EEE00AB1
:104B0000F1EE10FA01DDC2ED0B0AD2ED0B1AB1EE97
:104B1000600AF4EEC01AF1EE10FA01D282ED0B0A2F
:104B200001EE901AF8EEE11A61EE811AC2ED0C1A4C
:104B3000F4EEE01AF1EE10FA01DDC2ED0C0AD2ED4E
:104B40000C1AF4EEC01AF1EE10FA01D282ED0C0A42
:104B500001EE900AF8EEE11A21EE811A82ED0D1AAB
:104B6000B4EEE01AF1EE10FA02DCF0EE410A01E0D8
:104B7000C2ED0D0AF4EEC00AF1EE10FA01D282ED98
:104B80000D0ADFED2C1A92ED0B0AF0EE610AFBF72D
:104B9000D5FF82ED0B0A92ED0C0AF0EE610AFBF7ED
:104BA000CDFF82ED0C0A92ED0D0AF0EE610AFBF7E3
:104BB000C5FF82ED0D0AB3F90E009FED1F1A00EE3E
:104BC000100AF8EEC00A80EE810A82ED080AB3F9F5
:104BD000100000EE900AF8EEE00A80EE812A82EDE5
:104BE000092AB3F9120000EE900AF8EEE00A80EE0E
:104BF000812AF0EE610A82ED0A2AFBF79FFF82ED1F
:104C0000080A92ED090AF0EE610AFBF797FF82EDC0
:104C1000090A92ED0A0AF0EE610AFBF78FFF82EDB6
:104C20000A0AFFF701FE7FBDAC0000205CEFA6433F
:104C300000008039CDCCCC3D6F12834130B58BB0B4
:104C40000024182104A8FBF717FB00200090019016
:104C5000029003901420FCF75BFC0E2269463B2077
:104C600000F0AAF8BDF80000049940BA01FA80F0FB
:104C70000490BDF80200059940BA01FA80F0059051
:104C8000BDF80400069940BA01FA80F00690BDF81C
:104C90000800079940BA01FA80F00790BDF80A00B1
:104CA000089940BA01FA80F00890BDF80C00099903
:104CB00040BA01FA80F009900520FCF729FC641C39
:104CC000642CCADB0499642091FBF0F425498C82A2
:104CD000059A92FBF0F2CA82069B93FBF0F30B83DA
:104CE000079D95FBF0F54D83089D95FBF0F58D83B1
:104CF000099D95FBF0F0C88314FB04F012FB020041
:104D000013FB0300FBF74BFC41EC100BFEF76CFFB1
:104D100051EC100BFBF767FC00EE100A1148DFEDB9
:104D2000120A5038114980ED120A20EE200A80ED57
:104D3000130A10EE100A08440D4988420CD3BFF341
:104D40004F8F0C4801680C4A01F4E0611143016087
:104D5000BFF34F8F00BFFDE71420FCF7D9FB0BB06A
:104D600030BD0000AC00002000008039AE47A1C07B
:104D700086EB31000CED00E00400FA0570B50C4D37
:104D80000446002240212846FCF7BEFC44F0800087
:104D9000084CA070FDF7ECFEE070A078FDF7E8FE8F
:104DA000E070012240212846FCF7AEFCE07870BD9F
:104DB00000140240000000202DE9F047DFF8549075
:104DC00017460E460446002240214846FCF79CFC4C
:104DD000DFF8448044F08000454688F80200FDF783
:104DE000C7FEE87000250AE044F0800088F8020061
:104DF000FDF7BEFE641C06F8010BE4B26D1CBD425B
:104E0000F2DB012240214846FCF77EFC0020BDE891
:104E1000F0870000001402400000002070B50D4E25
:104E20000D460446002240213046FCF76DFC04F09C
:104E30007F00094CA070FDF79BFEE0702846A5702E
:104E4000FDF796FEE070012240213046FCF75CFC45
:104E5000002070BD001402400000002010B52DEDB0
:104E6000048BF0EE608AFEEE000A20EE208A18EE37
:104E7000100AFBF7A5FB41EC100BFEF7EDFD51EC22
:104E8000100BFBF7B0FBB6EE000A09EE900A68EED5
:104E9000808A18EE900AFBF793FB41EC100BFEF7AB
:104EA000DBFD51EC100BFBF79EFB09EE100A18EE30
:104EB000100AFBF785FB41EC100BFEF731FE51ECBD
:104EC000100BFBF790FB08EE100A18EE900AFBF7A8
:104ED00077FB41EC100BFEF723FE51EC100BFBF7B8
:104EE00082FB00EE100A29EE892A29EE081A69EEE3
:104EF000800A60EE081A22EE020A154C04F10C003A
:104F000000EEA00A84ED022AC0EC030A01EE010AB9
:104F100001EEA10AFFF7D8FCD4ED020A60EE800A88
:104F2000C4ED020AD4ED030A60EE800AC4ED030A60
:104F3000D4ED040A60EE800AC4ED040AD4ED050A3B
:104F400020EE800A84ED050ABDEC048B10BD000044
:104F50000800002000B52DED048B83B041EC190B47
:104F6000FBF722FC41EC180B18EE100A18EE901A11
:104F70008DED008B002818BF0120084320F0004071
:104F8000C0F17F6000F1E040C00F14D019EE101A9C
:104F900019EE900A8DED009B002918BF01210843EE
:104FA00020F00040C0F17F6000F1E040C00F04BF7E
:104FB0000120FFF793FA51EC180B03B0BDEC048B02
:104FC00000BD10B500EE100A2DED028BB1EEC08AC7
:104FD00018EE100A20F00040C0F1FF40C00F0AD0C8
:104FE00010EE100A20F00040C0F1FF40C00F04BFD7
:104FF0000120FFF773FA18EE100ABDEC028B10BD0A
:105000006B8068076B036C001A041B181C101D02D0
:105010006A200000000610160006101600000000AE
:105020000000000001020304060708090000000058
:105030000102030400000000555555555555C53F64
:105040007D6FEB0312D6D4BF5544880E55C1C93FBE
:105050003B8F68B52882A4BF88B20175E0EF493F55
:1050600009F7FD0DE13D023F4B2D8A1C273A03C095
:10507000C88A599CE52A004059018D1B6C06E6BF81
:1050800082922EB1C5B8B33F4C5555555555A53FE5
:105090007751C1166CC156BF9015CB19A001FA3ECD
:1050A000AD529C804F7E92BEC4B1B4BD9EEE213EF7
:1050B000D43888BEE9FAA8BD00004054FB21F93F6E
:1050C0003163621A61B4D03D0000601A61B4D03D12
:1050D0007370032E8A19A33B0000002E8A19A33B8C
:1050E000C14920259A837B390000000000000000A0
:1050F0006E83F9A22915444ED15727FCC0DD34F543
:10510000999562DB4190433CAB6351FE61C5BBDEC8
:105110003A6E24B7E0D24D42EA2E49061C92D109DC
:105120001CEB1DFE3EA729B1F53582E88444BB2E59
:1051300026709CE9417E5FB439D69139F4395383A6
:105140008B5F849C3B28F9BDFF97F81F0F9805DE05
:105150008B112FEF1F6D0A5ACF7E366DB709CB2703
:10516000663F464F2DEA5F9EC7BA27757BF1E5EB98
:10517000F739073DEA92528AB15FFB6B085D8D1FDC
:10518000A6F810111111813FD561C119A0012ABFE4
:105190007DFEB157E31DC73EEB9C2B8AE6E55ABE68
:1051A0007CD5CF5A3AD9E53DC8510008000000200F
:1051B0005C000000BC440008245200085C00002091
:1051C0003C0A0000CC440008000100000000000080
:1051D000CDCC4C3D0AD7233C0000803F00000000AE
:1051E00000000000000000000000000000000000BF
:1051F00000000000A69BC43A000400040004000460
:105200000202000000000000010000001000000089
:10521000000000000024F400000000000000000076
:04522000000000008A
:04000005080001AD41
:00000001FF
